:1000000019C033C032C031C030C02FC02EC02DC087
:100010002CC02BC02AC029C028C027C026C025C09C
:1000200024C023C022C021C020C01FC01EC01DC0CC
:100030001CC01BC011241FBECFEFD2E0DEBFCDBF5E
:1000400011E0A0E0B1E0E0E5F1E002C005900D9222
:10005000AC30B107D9F721E0ACE0B1E001C01D92AE
:10006000AC35B207E1F757D071C0CACF9091C0004C
:1000700095FFFCCF8093C6008091C00085FFFCCF28
:100080000895FC012081222371F031968091C000F7
:1000900085FFFCCF2093C6008091C00085FFFCCF78
:1000A00021912111F3CF08959C01FC014491442337
:1000B00091F00196F90124913091C00035FFFCCFF9
:1000C0002093C6002091C00025FFFCCF9C01FC01BD
:1000D00044914111EECF0895E1ECF0E08081886118
:1000E0008083E2ECF0E08081866080831092C5001E
:1000F00087E68093C400089580E89EE303C00197DB
:10010000009739F02091C00027FFF9CF8091C600F9
:10011000089580E00895CF93DF93CDB7DEB72C9795
:100120000FB6F894DEBF0FBECDBF8CE0E0E0F1E08B
:10013000DE01119601900D928A95E1F7CDDFDCDFAB
:100140008136E9F7CE0101969CDFF9CFF894FFCF15
:0C01500048656C6C6F20576F726C640087
:00000001FF
