S00C00006D61696E2E7372656373
S113000019C028C027C026C025C024C023C022C0D0
S113001021C020C01FC01EC01DC01CC01BC01AC0F0
S113002019C018C017C016C015C014C013C012C020
S113003011C010C011241FBECFEFD2E0DEBFCDBF70
S113004021E0A0E0B1E001C01D92A035B207E1F7C4
S113005057D067C0D5CF9091C00095FFFCCF809357
S1130060C6008091C00085FFFCCF0895FC0120816B
S1130070222371F031968091C00085FFFCCF20933C
S1130080C6008091C00085FFFCCF21912111F3CFE0
S113009008959C01FC014491442391F00196F901D7
S11300A024913091C00035FFFCCF2093C6002091ED
S11300B0C00025FFFCCF9C01FC0144914111EECF0F
S11300C00895E1ECF0E0808188618083E2ECF0E067
S11300D08081866080831092C50087E68093C40087
S11300E0089580E89EE303C00197009739F02091BA
S11300F0C00027FFF9CF8091C600089580E00895DD
S1130100CF93DF9300D01F92CDB7DEB788E499E692
S1130110A0E089839A83AB83D4DFCE010196A6DF66
S1090120FCCFF894FFCFB0
S9030000FC
