:100000000C9446000C9458000C9458000C94580022
:100010000C9458000C9458000C9458000C94580000
:100020000C9458000C9458000C9458000C945800F0
:100030000C9458000C9458000C9458000C945800E0
:100040000C9458000C9458000C9458000C945800D0
:100050000C9458000C9458000C9458000C945800C0
:100060000C9458000C9458000C9458000C945800B0
:100070000C9458000C9458000C9458000C945800A0
:100080000C9458000C9458000C94580011241FBE76
:10009000CFEFD0E1DEBFCDBF21E0A0E0B1E001C0F5
:1000A0001D92A230B207E1F70E9491000C94DB0090
:1000B0000C94000040B32091000130910101220F07
:1000C000331F306E842F817090E0282B392B3093B2
:1000D00001012093000181E02115304F09F080E0FB
:1000E000089527E68202912D11249595959587FD17
:1000F00093959202212D11242595259597FD239501
:10010000492F3AE0239F40191124242F40E1240273
:10011000900111244AE0949F80191124822B88BBFE
:1001200008958FEF87BB40E050E077E606C083EF8D
:1001300091E00197F1F700C0000060B380910001E9
:1001400090910101880F991F906E262F217030E049
:10015000822B932B90930101809300018115904F86
:1001600031F7443651052CF090E040E050E098BB68
:10017000DECF4F5F5F4F4702612D11246595659576
:1001800047FD63956702812D11248595859567FD4F
:100190008395E62F9AE0899FE01911248E2FE0E1E4
:1001A0008E02C0011124942FEAE06E9F9019112451
:0A01B000982B98BBBCCFF894FFCF4A
:00000001FF
